{
  "contractName": "Auction",
  "abi": [
    {
      "constant": true,
      "inputs": [],
      "name": "CREATOR_REWARD",
      "outputs": [
        {
          "name": "",
          "type": "uint256"
        }
      ],
      "payable": false,
      "stateMutability": "view",
      "type": "function",
      "signature": "0x40c900b6"
    },
    {
      "constant": true,
      "inputs": [],
      "name": "GTT_ADDRESS",
      "outputs": [
        {
          "name": "",
          "type": "address"
        }
      ],
      "payable": false,
      "stateMutability": "view",
      "type": "function",
      "signature": "0x4816e5f1"
    },
    {
      "constant": true,
      "inputs": [],
      "name": "currHighest",
      "outputs": [
        {
          "name": "",
          "type": "uint256"
        }
      ],
      "payable": false,
      "stateMutability": "view",
      "type": "function",
      "signature": "0x55cd4180"
    },
    {
      "constant": true,
      "inputs": [],
      "name": "REWARD_PER_WIN",
      "outputs": [
        {
          "name": "",
          "type": "uint256"
        }
      ],
      "payable": false,
      "stateMutability": "view",
      "type": "function",
      "signature": "0x56a438f5"
    },
    {
      "constant": true,
      "inputs": [],
      "name": "lastAuctionStart",
      "outputs": [
        {
          "name": "",
          "type": "uint256"
        }
      ],
      "payable": false,
      "stateMutability": "view",
      "type": "function",
      "signature": "0x578277e3"
    },
    {
      "constant": true,
      "inputs": [],
      "name": "currWinner",
      "outputs": [
        {
          "name": "",
          "type": "address"
        }
      ],
      "payable": false,
      "stateMutability": "view",
      "type": "function",
      "signature": "0x793c68c3"
    },
    {
      "constant": true,
      "inputs": [],
      "name": "CREATOR_ADDRESS",
      "outputs": [
        {
          "name": "",
          "type": "address"
        }
      ],
      "payable": false,
      "stateMutability": "view",
      "type": "function",
      "signature": "0x7de6b6fe"
    },
    {
      "constant": false,
      "inputs": [
        {
          "name": "_gttAddress",
          "type": "address"
        }
      ],
      "name": "setTokenAddress",
      "outputs": [],
      "payable": false,
      "stateMutability": "nonpayable",
      "type": "function",
      "signature": "0x26a4e8d2"
    },
    {
      "constant": false,
      "inputs": [],
      "name": "play",
      "outputs": [],
      "payable": true,
      "stateMutability": "payable",
      "type": "function",
      "signature": "0x93e84cd9"
    }
  ],
  "bytecode": "0x6080604052632540be40600055625f5e1060015534801561001f57600080fd5b5061075b8061002f6000396000f3fe6080604052600436106100a3576000357c01000000000000000000000000000000000000000000000000000000009004806356a438f51161007657806356a438f5146101a6578063578277e3146101d1578063793c68c3146101fc5780637de6b6fe1461025357806393e84cd9146102aa576100a3565b806326a4e8d2146100a857806340c900b6146100f95780634816e5f11461012457806355cd41801461017b575b600080fd5b3480156100b457600080fd5b506100f7600480360360208110156100cb57600080fd5b81019080803573ffffffffffffffffffffffffffffffffffffffff1690602001909291905050506102b4565b005b34801561010557600080fd5b5061010e610350565b6040518082815260200191505060405180910390f35b34801561013057600080fd5b50610139610356565b604051808273ffffffffffffffffffffffffffffffffffffffff1673ffffffffffffffffffffffffffffffffffffffff16815260200191505060405180910390f35b34801561018757600080fd5b5061019061037c565b6040518082815260200191505060405180910390f35b3480156101b257600080fd5b506101bb610382565b6040518082815260200191505060405180910390f35b3480156101dd57600080fd5b506101e6610388565b6040518082815260200191505060405180910390f35b34801561020857600080fd5b5061021161038e565b604051808273ffffffffffffffffffffffffffffffffffffffff1673ffffffffffffffffffffffffffffffffffffffff16815260200191505060405180910390f35b34801561025f57600080fd5b506102686103b4565b604051808273ffffffffffffffffffffffffffffffffffffffff1673ffffffffffffffffffffffffffffffffffffffff16815260200191505060405180910390f35b6102b26103da565b005b600073ffffffffffffffffffffffffffffffffffffffff16600360009054906101000a900473ffffffffffffffffffffffffffffffffffffffff1673ffffffffffffffffffffffffffffffffffffffff16141561034d5780600360006101000a81548173ffffffffffffffffffffffffffffffffffffffff021916908373ffffffffffffffffffffffffffffffffffffffff1602179055505b50565b60015481565b600360009054906101000a900473ffffffffffffffffffffffffffffffffffffffff1681565b60055481565b60005481565b60065481565b600460009054906101000a900473ffffffffffffffffffffffffffffffffffffffff1681565b600260009054906101000a900473ffffffffffffffffffffffffffffffffffffffff1681565b6000439050603281036006541015610446576103f46104e3565b806006819055506000600460006101000a81548173ffffffffffffffffffffffffffffffffffffffff021916908373ffffffffffffffffffffffffffffffffffffffff16021790555060006005819055505b600554341115610499573460058190555033600460006101000a81548173ffffffffffffffffffffffffffffffffffffffff021916908373ffffffffffffffffffffffffffffffffffffffff1602179055505b3373ffffffffffffffffffffffffffffffffffffffff166108fc349081150290604051600060405180830381858888f193505050501580156104df573d6000803e3d6000fd5b5050565b600360009054906101000a900473ffffffffffffffffffffffffffffffffffffffff1673ffffffffffffffffffffffffffffffffffffffff1663a9059cbb600460009054906101000a900473ffffffffffffffffffffffffffffffffffffffff166000546040518363ffffffff167c0100000000000000000000000000000000000000000000000000000000028152600401808373ffffffffffffffffffffffffffffffffffffffff1673ffffffffffffffffffffffffffffffffffffffff16815260200182815260200192505050602060405180830381600087803b1580156105cc57600080fd5b505af11580156105e0573d6000803e3d6000fd5b505050506040513d60208110156105f657600080fd5b810190808051906020019092919050505050600360009054906101000a900473ffffffffffffffffffffffffffffffffffffffff1673ffffffffffffffffffffffffffffffffffffffff1663a9059cbb600260009054906101000a900473ffffffffffffffffffffffffffffffffffffffff166001546040518363ffffffff167c0100000000000000000000000000000000000000000000000000000000028152600401808373ffffffffffffffffffffffffffffffffffffffff1673ffffffffffffffffffffffffffffffffffffffff16815260200182815260200192505050602060405180830381600087803b1580156106f157600080fd5b505af1158015610705573d6000803e3d6000fd5b505050506040513d602081101561071b57600080fd5b81019080805190602001909291905050505056fea165627a7a72305820a9dc3ab52b28aab4c962dfb5a51c8fe35692761d6d258c502c6385479acb6b750029",
  "source": "pragma solidity 0.5.5;\n\ncontract IERC20 {\n    function transfer(address to, uint256 value) public returns (bool) {}\n}\n\ncontract Auction {\n\n  uint256 public REWARD_PER_WIN = 625000000;\n  uint256 public CREATOR_REWARD = 6250000;\n  address public CREATOR_ADDRESS;\n  address public GTT_ADDRESS;\n\n  address public currWinner;   // winner\n  uint256 public currHighest;  // highest bet\n  uint256 public lastAuctionStart;\n\n\n\n  // Can only be called once\n  function setTokenAddress(address _gttAddress) public {\n    if (GTT_ADDRESS == address(0)) {\n      GTT_ADDRESS = _gttAddress;\n    }\n  }\n\n  function play() public payable {\n    uint256 currentBlock = block.number;\n\n    // pay out last block's winnings\n    if (lastAuctionStart < currentBlock - 50) {\n      payOut();\n\n      // reset state for new auction\n      lastAuctionStart = currentBlock;\n      currWinner = address(0);\n      currHighest = 0;\n    }\n\n    // log winning tx\n    if (msg.value > currHighest) {\n      currHighest = msg.value;\n      currWinner = msg.sender;\n    }\n\n    // return funds\n    msg.sender.transfer(msg.value);\n  }\n\n  function payOut() internal {\n    IERC20(GTT_ADDRESS).transfer(currWinner, REWARD_PER_WIN);\n    IERC20(GTT_ADDRESS).transfer(CREATOR_ADDRESS, CREATOR_REWARD);\n  }\n}",
  "sourcePath": "/Users/sh/Dev/other/gtg/gtg-web/contracts/Auction.sol",
  "compiler": {
    "name": "solc",
    "version": "0.5.5+commit.47a71e8f.Emscripten.clang"
  },
  "schemaVersion": "3.0.2",
  "updatedAt": "2019-03-06T06:52:20.139Z",
  "devdoc": {
    "methods": {}
  },
  "userdoc": {
    "methods": {}
  }
}