{
  "contractName": "Auction",
  "abi": [
    {
      "constant": true,
      "inputs": [],
      "name": "CREATOR_REWARD",
      "outputs": [
        {
          "name": "",
          "type": "uint256"
        }
      ],
      "payable": false,
      "stateMutability": "view",
      "type": "function",
      "signature": "0x40c900b6"
    },
    {
      "constant": true,
      "inputs": [],
      "name": "GTT_ADDRESS",
      "outputs": [
        {
          "name": "",
          "type": "address"
        }
      ],
      "payable": false,
      "stateMutability": "view",
      "type": "function",
      "signature": "0x4816e5f1"
    },
    {
      "constant": true,
      "inputs": [],
      "name": "currHighest",
      "outputs": [
        {
          "name": "",
          "type": "uint256"
        }
      ],
      "payable": false,
      "stateMutability": "view",
      "type": "function",
      "signature": "0x55cd4180"
    },
    {
      "constant": true,
      "inputs": [],
      "name": "REWARD_PER_WIN",
      "outputs": [
        {
          "name": "",
          "type": "uint256"
        }
      ],
      "payable": false,
      "stateMutability": "view",
      "type": "function",
      "signature": "0x56a438f5"
    },
    {
      "constant": true,
      "inputs": [],
      "name": "lastAuctionStart",
      "outputs": [
        {
          "name": "",
          "type": "uint256"
        }
      ],
      "payable": false,
      "stateMutability": "view",
      "type": "function",
      "signature": "0x578277e3"
    },
    {
      "constant": true,
      "inputs": [],
      "name": "lastHighest",
      "outputs": [
        {
          "name": "",
          "type": "uint256"
        }
      ],
      "payable": false,
      "stateMutability": "view",
      "type": "function",
      "signature": "0x65cab002"
    },
    {
      "constant": true,
      "inputs": [],
      "name": "currWinner",
      "outputs": [
        {
          "name": "",
          "type": "address"
        }
      ],
      "payable": false,
      "stateMutability": "view",
      "type": "function",
      "signature": "0x793c68c3"
    },
    {
      "constant": true,
      "inputs": [],
      "name": "CREATOR_ADDRESS",
      "outputs": [
        {
          "name": "",
          "type": "address"
        }
      ],
      "payable": false,
      "stateMutability": "view",
      "type": "function",
      "signature": "0x7de6b6fe"
    },
    {
      "inputs": [],
      "payable": false,
      "stateMutability": "nonpayable",
      "type": "constructor",
      "signature": "constructor"
    },
    {
      "constant": false,
      "inputs": [
        {
          "name": "_gttAddress",
          "type": "address"
        }
      ],
      "name": "setTokenAddress",
      "outputs": [],
      "payable": false,
      "stateMutability": "nonpayable",
      "type": "function",
      "signature": "0x26a4e8d2"
    },
    {
      "constant": false,
      "inputs": [],
      "name": "play",
      "outputs": [],
      "payable": true,
      "stateMutability": "payable",
      "type": "function",
      "signature": "0x93e84cd9"
    }
  ],
  "bytecode": "0x6080604052632540be40600055625f5e1060015534801561001f57600080fd5b5033600260006101000a81548173ffffffffffffffffffffffffffffffffffffffff021916908373ffffffffffffffffffffffffffffffffffffffff1602179055504360078190555030600460006101000a81548173ffffffffffffffffffffffffffffffffffffffff021916908373ffffffffffffffffffffffffffffffffffffffff160217905550610786806100b86000396000f3fe6080604052600436106100ae576000357c010000000000000000000000000000000000000000000000000000000090048063578277e311610076578063578277e3146101dc57806365cab00214610207578063793c68c3146102325780637de6b6fe1461028957806393e84cd9146102e0576100ae565b806326a4e8d2146100b357806340c900b6146101045780634816e5f11461012f57806355cd41801461018657806356a438f5146101b1575b600080fd5b3480156100bf57600080fd5b50610102600480360360208110156100d657600080fd5b81019080803573ffffffffffffffffffffffffffffffffffffffff1690602001909291905050506102ea565b005b34801561011057600080fd5b50610119610386565b6040518082815260200191505060405180910390f35b34801561013b57600080fd5b5061014461038c565b604051808273ffffffffffffffffffffffffffffffffffffffff1673ffffffffffffffffffffffffffffffffffffffff16815260200191505060405180910390f35b34801561019257600080fd5b5061019b6103b2565b6040518082815260200191505060405180910390f35b3480156101bd57600080fd5b506101c66103b8565b6040518082815260200191505060405180910390f35b3480156101e857600080fd5b506101f16103be565b6040518082815260200191505060405180910390f35b34801561021357600080fd5b5061021c6103c4565b6040518082815260200191505060405180910390f35b34801561023e57600080fd5b506102476103ca565b604051808273ffffffffffffffffffffffffffffffffffffffff1673ffffffffffffffffffffffffffffffffffffffff16815260200191505060405180910390f35b34801561029557600080fd5b5061029e6103f0565b604051808273ffffffffffffffffffffffffffffffffffffffff1673ffffffffffffffffffffffffffffffffffffffff16815260200191505060405180910390f35b6102e8610416565b005b600073ffffffffffffffffffffffffffffffffffffffff16600360009054906101000a900473ffffffffffffffffffffffffffffffffffffffff1673ffffffffffffffffffffffffffffffffffffffff1614156103835780600360006101000a81548173ffffffffffffffffffffffffffffffffffffffff021916908373ffffffffffffffffffffffffffffffffffffffff1602179055505b50565b60015481565b600360009054906101000a900473ffffffffffffffffffffffffffffffffffffffff1681565b60055481565b60005481565b60075481565b60065481565b600460009054906101000a900473ffffffffffffffffffffffffffffffffffffffff1681565b600260009054906101000a900473ffffffffffffffffffffffffffffffffffffffff1681565b600043905060328103600754101561048a5761043061050e565b8060078190555030600460006101000a81548173ffffffffffffffffffffffffffffffffffffffff021916908373ffffffffffffffffffffffffffffffffffffffff16021790555060055460068190555060006005819055505b6005543373ffffffffffffffffffffffffffffffffffffffff1631111561050b573373ffffffffffffffffffffffffffffffffffffffff163160058190555033600460006101000a81548173ffffffffffffffffffffffffffffffffffffffff021916908373ffffffffffffffffffffffffffffffffffffffff1602179055505b50565b600360009054906101000a900473ffffffffffffffffffffffffffffffffffffffff1673ffffffffffffffffffffffffffffffffffffffff1663a9059cbb600460009054906101000a900473ffffffffffffffffffffffffffffffffffffffff166000546040518363ffffffff167c0100000000000000000000000000000000000000000000000000000000028152600401808373ffffffffffffffffffffffffffffffffffffffff1673ffffffffffffffffffffffffffffffffffffffff16815260200182815260200192505050602060405180830381600087803b1580156105f757600080fd5b505af115801561060b573d6000803e3d6000fd5b505050506040513d602081101561062157600080fd5b810190808051906020019092919050505050600360009054906101000a900473ffffffffffffffffffffffffffffffffffffffff1673ffffffffffffffffffffffffffffffffffffffff1663a9059cbb600260009054906101000a900473ffffffffffffffffffffffffffffffffffffffff166001546040518363ffffffff167c0100000000000000000000000000000000000000000000000000000000028152600401808373ffffffffffffffffffffffffffffffffffffffff1673ffffffffffffffffffffffffffffffffffffffff16815260200182815260200192505050602060405180830381600087803b15801561071c57600080fd5b505af1158015610730573d6000803e3d6000fd5b505050506040513d602081101561074657600080fd5b81019080805190602001909291905050505056fea165627a7a7230582046b90a814d872daad3a26f73afbdca872a4e6b407dcdbc59d6ac033d815795090029",
  "source": "pragma solidity 0.5.5;\n\ncontract IERC20 {\n    function transfer(address to, uint256 value) public returns (bool) {}\n}\n\ncontract Auction {\n\n  uint256 public REWARD_PER_WIN = 625000000;\n  uint256 public CREATOR_REWARD = 6250000;\n  address public CREATOR_ADDRESS;\n  address public GTT_ADDRESS;\n\n  address public currWinner;   // winner\n  uint256 public currHighest;  // highest bet\n  uint256 public lastHighest;  // last highest bet\n  uint256 public lastAuctionStart;\n\n  constructor() public {\n    CREATOR_ADDRESS = msg.sender;\n    lastAuctionStart = block.number;\n    currWinner = address(this);\n  }\n\n  // can only be called once\n  function setTokenAddress(address _gttAddress) public {\n    if (GTT_ADDRESS == address(0)) {\n      GTT_ADDRESS = _gttAddress;\n    }\n  }\n\n  function play() public payable {\n    uint256 currentBlock = block.number;\n\n    // pay out last block's winnings\n    if (lastAuctionStart < currentBlock - 50) {\n      payOut();\n\n      // reset state for new auction\n      lastAuctionStart = currentBlock;\n      currWinner = address(this);\n      lastHighest = currHighest;\n      currHighest = 0;\n    }\n\n    // log winning tx\n    if (msg.sender.balance > currHighest) {\n      currHighest = msg.sender.balance;\n      currWinner = msg.sender;\n    }\n  }\n\n  function payOut() internal {\n    IERC20(GTT_ADDRESS).transfer(currWinner, REWARD_PER_WIN);\n    IERC20(GTT_ADDRESS).transfer(CREATOR_ADDRESS, CREATOR_REWARD);\n  }\n}",
  "sourcePath": "/Users/sh/Dev/other/gtg/gtg-web/contracts/Auction.sol",
  "compiler": {
    "name": "solc",
    "version": "0.5.5+commit.47a71e8f.Emscripten.clang"
  },
  "schemaVersion": "3.0.2",
  "updatedAt": "2019-03-07T19:03:53.266Z",
  "devdoc": {
    "methods": {}
  },
  "userdoc": {
    "methods": {}
  }
}