{
  "contractName": "CurrentKing",
  "abi": [
    {
      "constant": true,
      "inputs": [],
      "name": "CREATOR_REWARD",
      "outputs": [
        {
          "name": "",
          "type": "uint256"
        }
      ],
      "payable": false,
      "stateMutability": "view",
      "type": "function",
      "signature": "0x40c900b6"
    },
    {
      "constant": true,
      "inputs": [],
      "name": "GTT_ADDRESS",
      "outputs": [
        {
          "name": "",
          "type": "address"
        }
      ],
      "payable": false,
      "stateMutability": "view",
      "type": "function",
      "signature": "0x4816e5f1"
    },
    {
      "constant": true,
      "inputs": [],
      "name": "REWARD_PER_WIN",
      "outputs": [
        {
          "name": "",
          "type": "uint256"
        }
      ],
      "payable": false,
      "stateMutability": "view",
      "type": "function",
      "signature": "0x56a438f5"
    },
    {
      "constant": true,
      "inputs": [],
      "name": "CREATOR_ADDRESS",
      "outputs": [
        {
          "name": "",
          "type": "address"
        }
      ],
      "payable": false,
      "stateMutability": "view",
      "type": "function",
      "signature": "0x7de6b6fe"
    },
    {
      "constant": true,
      "inputs": [],
      "name": "currentKing",
      "outputs": [
        {
          "name": "",
          "type": "address"
        }
      ],
      "payable": false,
      "stateMutability": "view",
      "type": "function",
      "signature": "0xf5b45714"
    },
    {
      "constant": true,
      "inputs": [],
      "name": "lastPaidBlock",
      "outputs": [
        {
          "name": "",
          "type": "uint256"
        }
      ],
      "payable": false,
      "stateMutability": "view",
      "type": "function",
      "signature": "0xf6aced51"
    },
    {
      "constant": false,
      "inputs": [
        {
          "name": "_gttAddress",
          "type": "address"
        }
      ],
      "name": "setTokenAddress",
      "outputs": [],
      "payable": false,
      "stateMutability": "nonpayable",
      "type": "function",
      "signature": "0x26a4e8d2"
    },
    {
      "constant": false,
      "inputs": [],
      "name": "play",
      "outputs": [],
      "payable": false,
      "stateMutability": "nonpayable",
      "type": "function",
      "signature": "0x93e84cd9"
    }
  ],
  "bytecode": "0x608060405262989680600055620186a0600155731cb3f4482c1f89c5c9457fa2eb634885462e4372600260006101000a81548173ffffffffffffffffffffffffffffffffffffffff021916908373ffffffffffffffffffffffffffffffffffffffff16021790555034801561007357600080fd5b5061069a806100836000396000f3fe608060405234801561001057600080fd5b50600436106100a5576000357c0100000000000000000000000000000000000000000000000000000000900480637de6b6fe116100785780637de6b6fe1461017457806393e84cd9146101be578063f5b45714146101c8578063f6aced5114610212576100a5565b806326a4e8d2146100aa57806340c900b6146100ee5780634816e5f11461010c57806356a438f514610156575b600080fd5b6100ec600480360360208110156100c057600080fd5b81019080803573ffffffffffffffffffffffffffffffffffffffff169060200190929190505050610230565b005b6100f66102cc565b6040518082815260200191505060405180910390f35b6101146102d2565b604051808273ffffffffffffffffffffffffffffffffffffffff1673ffffffffffffffffffffffffffffffffffffffff16815260200191505060405180910390f35b61015e6102f8565b6040518082815260200191505060405180910390f35b61017c6102fe565b604051808273ffffffffffffffffffffffffffffffffffffffff1673ffffffffffffffffffffffffffffffffffffffff16815260200191505060405180910390f35b6101c6610324565b005b6101d0610382565b604051808273ffffffffffffffffffffffffffffffffffffffff1673ffffffffffffffffffffffffffffffffffffffff16815260200191505060405180910390f35b61021a6103a8565b6040518082815260200191505060405180910390f35b600073ffffffffffffffffffffffffffffffffffffffff16600360009054906101000a900473ffffffffffffffffffffffffffffffffffffffff1673ffffffffffffffffffffffffffffffffffffffff1614156102c95780600360006101000a81548173ffffffffffffffffffffffffffffffffffffffff021916908373ffffffffffffffffffffffffffffffffffffffff1602179055505b50565b60015481565b600360009054906101000a900473ffffffffffffffffffffffffffffffffffffffff1681565b60005481565b600260009054906101000a900473ffffffffffffffffffffffffffffffffffffffff1681565b60004390506004548114151561033e5761033d816103ae565b5b33600560006101000a81548173ffffffffffffffffffffffffffffffffffffffff021916908373ffffffffffffffffffffffffffffffffffffffff16021790555050565b600560009054906101000a900473ffffffffffffffffffffffffffffffffffffffff1681565b60045481565b60006004548203905081600481905550600360009054906101000a900473ffffffffffffffffffffffffffffffffffffffff1673ffffffffffffffffffffffffffffffffffffffff1663a9059cbb600560009054906101000a900473ffffffffffffffffffffffffffffffffffffffff166104348460005461063090919063ffffffff16565b6040518363ffffffff167c0100000000000000000000000000000000000000000000000000000000028152600401808373ffffffffffffffffffffffffffffffffffffffff1673ffffffffffffffffffffffffffffffffffffffff16815260200182815260200192505050602060405180830381600087803b1580156104b957600080fd5b505af11580156104cd573d6000803e3d6000fd5b505050506040513d60208110156104e357600080fd5b810190808051906020019092919050505050600360009054906101000a900473ffffffffffffffffffffffffffffffffffffffff1673ffffffffffffffffffffffffffffffffffffffff1663a9059cbb600260009054906101000a900473ffffffffffffffffffffffffffffffffffffffff1661056b8460015461063090919063ffffffff16565b6040518363ffffffff167c0100000000000000000000000000000000000000000000000000000000028152600401808373ffffffffffffffffffffffffffffffffffffffff1673ffffffffffffffffffffffffffffffffffffffff16815260200182815260200192505050602060405180830381600087803b1580156105f057600080fd5b505af1158015610604573d6000803e3d6000fd5b505050506040513d602081101561061a57600080fd5b8101908080519060200190929190505050505050565b6000808314156106435760009050610668565b6000828402905082848281151561065657fe5b0414151561066357600080fd5b809150505b9291505056fea165627a7a723058203ef739b2162228ffd3b11b01b0bcccd302aa6bdf74fab82f2d2afaec8120511c0029",
  "source": "pragma solidity 0.5.5;\n\nlibrary SafeMath {\n    /**\n    * @dev Multiplies two unsigned integers, reverts on overflow.\n    */\n    function mul(uint256 a, uint256 b) internal pure returns (uint256) {\n        if (a == 0) {\n            return 0;\n        }\n\n        uint256 c = a * b;\n        require(c / a == b);\n\n        return c;\n    }\n\n    /**\n    * @dev Integer division of two unsigned integers truncating the quotient, reverts on division by zero.\n    */\n    function div(uint256 a, uint256 b) internal pure returns (uint256) {\n        require(b > 0);\n        uint256 c = a / b;\n\n        return c;\n    }\n\n    /**\n    * @dev Subtracts two unsigned integers, reverts on overflow (i.e. if subtrahend is greater than minuend).\n    */\n    function sub(uint256 a, uint256 b) internal pure returns (uint256) {\n        require(b <= a);\n        uint256 c = a - b;\n\n        return c;\n    }\n\n    /**\n    * @dev Adds two unsigned integers, reverts on overflow.\n    */\n    function add(uint256 a, uint256 b) internal pure returns (uint256) {\n        uint256 c = a + b;\n        require(c >= a);\n\n        return c;\n    }\n\n    /**\n    * @dev Divides two unsigned integers and returns the remainder (unsigned integer modulo),\n    * reverts when dividing by zero.\n    */\n    function mod(uint256 a, uint256 b) internal pure returns (uint256) {\n        require(b != 0);\n        return a % b;\n    }\n}\n\ncontract IERC20 {\n    function transfer(address to, uint256 value) public returns (bool) {}\n}\n\ncontract CurrentKing {\n  using SafeMath for uint256;\n\n  // initialize\n  uint256 public REWARD_PER_WIN = 10000000;\n  uint256 public CREATOR_REWARD = 100000;\n  address public CREATOR_ADDRESS = 0x1CB3f4482C1f89c5c9457fA2eB634885462E4372;\n  address public GTT_ADDRESS;\n\n  // game state params\n  uint256 public lastPaidBlock;\n  address public currentKing;\n\n  // Can only be called once\n  function setTokenAddress(address _gttAddress) public {\n    if (GTT_ADDRESS == address(0)) {\n      GTT_ADDRESS = _gttAddress;\n    }\n  }\n\n  function play() public {\n    uint256 currentBlock = block.number;\n\n    // pay old king\n    if (currentBlock != lastPaidBlock) {\n      payOut(currentBlock);\n    }\n\n    // set new king\n    currentKing = msg.sender;\n  }\n\n  function payOut(uint256 currentBlock) internal {\n    // calculate multiplier (# of unclaimed blocks)\n    uint256 numBlocksToPayout = currentBlock - lastPaidBlock;\n    lastPaidBlock = currentBlock;\n\n    IERC20(GTT_ADDRESS).transfer(currentKing, REWARD_PER_WIN.mul(numBlocksToPayout));\n    IERC20(GTT_ADDRESS).transfer(CREATOR_ADDRESS, CREATOR_REWARD.mul(numBlocksToPayout));\n  }\n}",
  "sourcePath": "/Users/sh/Dev/other/gtg/gtg-web/contracts/CurrentKing.sol",
  "compiler": {
    "name": "solc",
    "version": "0.5.5+commit.47a71e8f.Emscripten.clang"
  },
  "schemaVersion": "3.0.2",
  "updatedAt": "2019-03-07T01:14:10.279Z",
  "devdoc": {
    "methods": {}
  },
  "userdoc": {
    "methods": {}
  }
}