{
  "contractName": "GasPrice",
  "abi": [
    {
      "constant": true,
      "inputs": [],
      "name": "currLowest",
      "outputs": [
        {
          "name": "",
          "type": "uint256"
        }
      ],
      "payable": false,
      "stateMutability": "view",
      "type": "function",
      "signature": "0x2ae9d650"
    },
    {
      "constant": true,
      "inputs": [],
      "name": "CREATOR_REWARD",
      "outputs": [
        {
          "name": "",
          "type": "uint256"
        }
      ],
      "payable": false,
      "stateMutability": "view",
      "type": "function",
      "signature": "0x40c900b6"
    },
    {
      "constant": true,
      "inputs": [],
      "name": "GTT_ADDRESS",
      "outputs": [
        {
          "name": "",
          "type": "address"
        }
      ],
      "payable": false,
      "stateMutability": "view",
      "type": "function",
      "signature": "0x4816e5f1"
    },
    {
      "constant": true,
      "inputs": [],
      "name": "REWARD_PER_WIN",
      "outputs": [
        {
          "name": "",
          "type": "uint256"
        }
      ],
      "payable": false,
      "stateMutability": "view",
      "type": "function",
      "signature": "0x56a438f5"
    },
    {
      "constant": true,
      "inputs": [],
      "name": "ONE_THOUSAND_GWEI",
      "outputs": [
        {
          "name": "",
          "type": "uint256"
        }
      ],
      "payable": false,
      "stateMutability": "view",
      "type": "function",
      "signature": "0x74973693"
    },
    {
      "constant": true,
      "inputs": [],
      "name": "currWinner",
      "outputs": [
        {
          "name": "",
          "type": "address"
        }
      ],
      "payable": false,
      "stateMutability": "view",
      "type": "function",
      "signature": "0x793c68c3"
    },
    {
      "constant": true,
      "inputs": [],
      "name": "CREATOR_ADDRESS",
      "outputs": [
        {
          "name": "",
          "type": "address"
        }
      ],
      "payable": false,
      "stateMutability": "view",
      "type": "function",
      "signature": "0x7de6b6fe"
    },
    {
      "constant": true,
      "inputs": [],
      "name": "lastPayout",
      "outputs": [
        {
          "name": "",
          "type": "uint256"
        }
      ],
      "payable": false,
      "stateMutability": "view",
      "type": "function",
      "signature": "0xb9db102a"
    },
    {
      "constant": false,
      "inputs": [
        {
          "name": "_gttAddress",
          "type": "address"
        }
      ],
      "name": "setTokenAddress",
      "outputs": [],
      "payable": false,
      "stateMutability": "nonpayable",
      "type": "function",
      "signature": "0x26a4e8d2"
    },
    {
      "constant": false,
      "inputs": [],
      "name": "play",
      "outputs": [],
      "payable": false,
      "stateMutability": "nonpayable",
      "type": "function",
      "signature": "0x93e84cd9"
    }
  ],
  "bytecode": "0x608060405262bebc206000556201e84860015564e8d4a5100060045534801561002757600080fd5b506106b2806100376000396000f3fe608060405234801561001057600080fd5b50600436106100bb576000357c010000000000000000000000000000000000000000000000000000000090048063749736931161008357806374973693146101a8578063793c68c3146101c65780637de6b6fe1461021057806393e84cd91461025a578063b9db102a14610264576100bb565b806326a4e8d2146100c05780632ae9d6501461010457806340c900b6146101225780634816e5f11461014057806356a438f51461018a575b600080fd5b610102600480360360208110156100d657600080fd5b81019080803573ffffffffffffffffffffffffffffffffffffffff169060200190929190505050610282565b005b61010c61031e565b6040518082815260200191505060405180910390f35b61012a610324565b6040518082815260200191505060405180910390f35b61014861032a565b604051808273ffffffffffffffffffffffffffffffffffffffff1673ffffffffffffffffffffffffffffffffffffffff16815260200191505060405180910390f35b610192610350565b6040518082815260200191505060405180910390f35b6101b0610356565b6040518082815260200191505060405180910390f35b6101ce61035c565b604051808273ffffffffffffffffffffffffffffffffffffffff1673ffffffffffffffffffffffffffffffffffffffff16815260200191505060405180910390f35b610218610382565b604051808273ffffffffffffffffffffffffffffffffffffffff1673ffffffffffffffffffffffffffffffffffffffff16815260200191505060405180910390f35b6102626103a8565b005b61026c610454565b6040518082815260200191505060405180910390f35b600073ffffffffffffffffffffffffffffffffffffffff16600360009054906101000a900473ffffffffffffffffffffffffffffffffffffffff1673ffffffffffffffffffffffffffffffffffffffff16141561031b5780600360006101000a81548173ffffffffffffffffffffffffffffffffffffffff021916908373ffffffffffffffffffffffffffffffffffffffff1602179055505b50565b60055481565b60015481565b600360009054906101000a900473ffffffffffffffffffffffffffffffffffffffff1681565b60005481565b60045481565b600760009054906101000a900473ffffffffffffffffffffffffffffffffffffffff1681565b600260009054906101000a900473ffffffffffffffffffffffffffffffffffffffff1681565b60004390506002810360065414156103fd576103e960018203600760009054906101000a900473ffffffffffffffffffffffffffffffffffffffff1661045a565b600181036006819055506004546005819055505b6005543a111515610451573a60058190555033600760006101000a81548173ffffffffffffffffffffffffffffffffffffffff021916908373ffffffffffffffffffffffffffffffffffffffff1602179055505b50565b60065481565b600360009054906101000a900473ffffffffffffffffffffffffffffffffffffffff1673ffffffffffffffffffffffffffffffffffffffff1663a9059cbb826000546040518363ffffffff167c0100000000000000000000000000000000000000000000000000000000028152600401808373ffffffffffffffffffffffffffffffffffffffff1673ffffffffffffffffffffffffffffffffffffffff16815260200182815260200192505050602060405180830381600087803b15801561052157600080fd5b505af1158015610535573d6000803e3d6000fd5b505050506040513d602081101561054b57600080fd5b810190808051906020019092919050505050600360009054906101000a900473ffffffffffffffffffffffffffffffffffffffff1673ffffffffffffffffffffffffffffffffffffffff1663a9059cbb600260009054906101000a900473ffffffffffffffffffffffffffffffffffffffff166001546040518363ffffffff167c0100000000000000000000000000000000000000000000000000000000028152600401808373ffffffffffffffffffffffffffffffffffffffff1673ffffffffffffffffffffffffffffffffffffffff16815260200182815260200192505050602060405180830381600087803b15801561064657600080fd5b505af115801561065a573d6000803e3d6000fd5b505050506040513d602081101561067057600080fd5b810190808051906020019092919050505050505056fea165627a7a72305820334de9b7b30cfdc4fe6951f180de84bdb14626824c33bfecc402aa73cb11154a0029",
  "source": "pragma solidity 0.5.5;\n\ncontract IERC20 {\n    function transfer(address to, uint256 value) public returns (bool) {}\n}\n\ncontract GasPrice {\n\n  // initialize\n  uint256 public REWARD_PER_WIN = 12500000;\n  uint256 public CREATOR_REWARD = 125000;\n  address public CREATOR_ADDRESS;\n  address public GTT_ADDRESS;\n  uint256 public ONE_THOUSAND_GWEI = 1000000000000;\n\n  // game state params\n  uint256 public currLowest;\n  uint256 public lastPayout;\n  address public currWinner;\n\n  // Can only be called once\n  function setTokenAddress(address _gttAddress) public {\n    if (GTT_ADDRESS == address(0)) {\n      GTT_ADDRESS = _gttAddress;\n    }\n  }\n\n  function play() public {\n    uint256 currentBlock = block.number;\n\n    // pay out last winner\n    if (lastPayout == currentBlock - 2) {\n      payOut(currentBlock - 1, currWinner);\n\n      // reinitialize\n      lastPayout = currentBlock - 1;\n      currLowest = ONE_THOUSAND_GWEI;\n    }\n\n    // set current winner\n    if (tx.gasprice <= currLowest) {\n      currLowest = tx.gasprice;\n      currWinner = msg.sender;\n    }\n  }\n\n  function payOut(uint256 blockToPay, address winner) internal {\n    IERC20(GTT_ADDRESS).transfer(winner, REWARD_PER_WIN);\n    IERC20(GTT_ADDRESS).transfer(CREATOR_ADDRESS, CREATOR_REWARD);\n  }\n}",
  "sourcePath": "/Users/sh/Dev/other/gtg/gtg-web/contracts/GasPrice.sol",
  "compiler": {
    "name": "solc",
    "version": "0.5.5+commit.47a71e8f.Emscripten.clang"
  },
  "schemaVersion": "3.0.2",
  "updatedAt": "2019-03-06T06:52:20.133Z",
  "devdoc": {
    "methods": {}
  },
  "userdoc": {
    "methods": {}
  }
}