{
  "contractName": "IERC20",
  "abi": [
    {
      "constant": false,
      "inputs": [
        {
          "name": "to",
          "type": "address"
        },
        {
          "name": "value",
          "type": "uint256"
        }
      ],
      "name": "transfer",
      "outputs": [
        {
          "name": "",
          "type": "bool"
        }
      ],
      "payable": false,
      "stateMutability": "nonpayable",
      "type": "function"
    }
  ],
  "bytecode": "0x608060405234801561001057600080fd5b5060e18061001f6000396000f3fe6080604052348015600f57600080fd5b50600436106045576000357c010000000000000000000000000000000000000000000000000000000090048063a9059cbb14604a575b600080fd5b609360048036036040811015605e57600080fd5b81019080803573ffffffffffffffffffffffffffffffffffffffff1690602001909291908035906020019092919050505060ad565b604051808215151515815260200191505060405180910390f35b60009291505056fea165627a7a7230582001adc76c87f6e12df4d7863b72593735c70eac44d775a8aef404bd296c5dc96b0029",
  "source": "pragma solidity 0.5.5;\n\ncontract IERC20 {\n    function transfer(address to, uint256 value) public returns (bool) {}\n}\n\ncontract NoTx {\n\n  // initialize\n  uint256 public REWARD_PER_WIN = 125000000;\n  uint256 public CREATOR_REWARD = 1250000;\n  address public CREATOR_ADDRESS = 0x1CB3f4482C1f89c5c9457fA2eB634885462E4372;\n  address public GTT_ADDRESS;\n\n  // game state params\n  uint256 public lastPayout;\n  address public currWinner;\n\n  mapping (uint256 => bool) public didBlockHaveTx;  // blockNumber, didBlockHaveTx\n\n  constructor() public {\n    currWinner = address(this);\n  }\n\n  // can only be called once\n  function setTokenAddress(address _gttAddress) public {\n    if (GTT_ADDRESS == address(0)) {\n      GTT_ADDRESS = _gttAddress;\n    }\n  }\n\n  function play() public {\n    uint256 currentBlock = block.number;\n    uint256 lastBlock = currentBlock - 1;\n\n    // pay out last winner\n    if (!didBlockHaveTx[lastBlock]) {\n      payOut(currWinner);\n\n      lastPayout = currentBlock;\n    }\n\n    // do nothing if a block has already been transacted in\n    if (didBlockHaveTx[currentBlock]) {\n      return;\n    } else {\n      didBlockHaveTx[currentBlock] = true;\n      currWinner = msg.sender;\n    }\n  }\n\n  function payOut(address winner) internal {\n    IERC20(GTT_ADDRESS).transfer(winner, REWARD_PER_WIN);\n    IERC20(GTT_ADDRESS).transfer(CREATOR_ADDRESS, CREATOR_REWARD);\n  }\n}",
  "sourcePath": "/Users/sh/Dev/other/gtg/gtg-web/contracts/NoTx.sol",
  "compiler": {
    "name": "solc",
    "version": "0.5.5+commit.47a71e8f.Emscripten.clang"
  },
  "schemaVersion": "3.0.2",
  "updatedAt": "2019-03-07T17:01:50.807Z",
  "devdoc": {
    "methods": {}
  },
  "userdoc": {
    "methods": {}
  }
}