{
  "contractName": "NoTx",
  "abi": [
    {
      "constant": true,
      "inputs": [
        {
          "name": "",
          "type": "uint256"
        }
      ],
      "name": "didBlockHaveTx",
      "outputs": [
        {
          "name": "",
          "type": "bool"
        }
      ],
      "payable": false,
      "stateMutability": "view",
      "type": "function",
      "signature": "0x26c715c2"
    },
    {
      "constant": true,
      "inputs": [],
      "name": "CREATOR_REWARD",
      "outputs": [
        {
          "name": "",
          "type": "uint256"
        }
      ],
      "payable": false,
      "stateMutability": "view",
      "type": "function",
      "signature": "0x40c900b6"
    },
    {
      "constant": true,
      "inputs": [],
      "name": "GTT_ADDRESS",
      "outputs": [
        {
          "name": "",
          "type": "address"
        }
      ],
      "payable": false,
      "stateMutability": "view",
      "type": "function",
      "signature": "0x4816e5f1"
    },
    {
      "constant": true,
      "inputs": [],
      "name": "REWARD_PER_WIN",
      "outputs": [
        {
          "name": "",
          "type": "uint256"
        }
      ],
      "payable": false,
      "stateMutability": "view",
      "type": "function",
      "signature": "0x56a438f5"
    },
    {
      "constant": true,
      "inputs": [],
      "name": "currWinner",
      "outputs": [
        {
          "name": "",
          "type": "address"
        }
      ],
      "payable": false,
      "stateMutability": "view",
      "type": "function",
      "signature": "0x793c68c3"
    },
    {
      "constant": true,
      "inputs": [],
      "name": "CREATOR_ADDRESS",
      "outputs": [
        {
          "name": "",
          "type": "address"
        }
      ],
      "payable": false,
      "stateMutability": "view",
      "type": "function",
      "signature": "0x7de6b6fe"
    },
    {
      "constant": true,
      "inputs": [],
      "name": "lastPayout",
      "outputs": [
        {
          "name": "",
          "type": "uint256"
        }
      ],
      "payable": false,
      "stateMutability": "view",
      "type": "function",
      "signature": "0xb9db102a"
    },
    {
      "inputs": [],
      "payable": false,
      "stateMutability": "nonpayable",
      "type": "constructor",
      "signature": "constructor"
    },
    {
      "constant": false,
      "inputs": [
        {
          "name": "_gttAddress",
          "type": "address"
        }
      ],
      "name": "setTokenAddress",
      "outputs": [],
      "payable": false,
      "stateMutability": "nonpayable",
      "type": "function",
      "signature": "0x26a4e8d2"
    },
    {
      "constant": false,
      "inputs": [],
      "name": "play",
      "outputs": [],
      "payable": false,
      "stateMutability": "nonpayable",
      "type": "function",
      "signature": "0x93e84cd9"
    }
  ],
  "bytecode": "0x60806040526307735940600055621312d0600155731cb3f4482c1f89c5c9457fa2eb634885462e4372600260006101000a81548173ffffffffffffffffffffffffffffffffffffffff021916908373ffffffffffffffffffffffffffffffffffffffff16021790555034801561007457600080fd5b5030600560006101000a81548173ffffffffffffffffffffffffffffffffffffffff021916908373ffffffffffffffffffffffffffffffffffffffff16021790555061071e806100c56000396000f3fe608060405234801561001057600080fd5b50600436106100b0576000357c01000000000000000000000000000000000000000000000000000000009004806356a438f51161008357806356a438f5146101a7578063793c68c3146101c55780637de6b6fe1461020f57806393e84cd914610259578063b9db102a14610263576100b0565b806326a4e8d2146100b557806326c715c2146100f957806340c900b61461013f5780634816e5f11461015d575b600080fd5b6100f7600480360360208110156100cb57600080fd5b81019080803573ffffffffffffffffffffffffffffffffffffffff169060200190929190505050610281565b005b6101256004803603602081101561010f57600080fd5b810190808035906020019092919050505061031d565b604051808215151515815260200191505060405180910390f35b61014761033d565b6040518082815260200191505060405180910390f35b610165610343565b604051808273ffffffffffffffffffffffffffffffffffffffff1673ffffffffffffffffffffffffffffffffffffffff16815260200191505060405180910390f35b6101af610369565b6040518082815260200191505060405180910390f35b6101cd61036f565b604051808273ffffffffffffffffffffffffffffffffffffffff1673ffffffffffffffffffffffffffffffffffffffff16815260200191505060405180910390f35b610217610395565b604051808273ffffffffffffffffffffffffffffffffffffffff1673ffffffffffffffffffffffffffffffffffffffff16815260200191505060405180910390f35b6102616103bb565b005b61026b6104c1565b6040518082815260200191505060405180910390f35b600073ffffffffffffffffffffffffffffffffffffffff16600360009054906101000a900473ffffffffffffffffffffffffffffffffffffffff1673ffffffffffffffffffffffffffffffffffffffff16141561031a5780600360006101000a81548173ffffffffffffffffffffffffffffffffffffffff021916908373ffffffffffffffffffffffffffffffffffffffff1602179055505b50565b60066020528060005260406000206000915054906101000a900460ff1681565b60015481565b600360009054906101000a900473ffffffffffffffffffffffffffffffffffffffff1681565b60005481565b600560009054906101000a900473ffffffffffffffffffffffffffffffffffffffff1681565b600260009054906101000a900473ffffffffffffffffffffffffffffffffffffffff1681565b600043905060006001820390506006600082815260200190815260200160002060009054906101000a900460ff1615156104225761041a600560009054906101000a900473ffffffffffffffffffffffffffffffffffffffff166104c7565b816004819055505b6006600083815260200190815260200160002060009054906101000a900460ff161561044f5750506104bf565b60016006600084815260200190815260200160002060006101000a81548160ff02191690831515021790555033600560006101000a81548173ffffffffffffffffffffffffffffffffffffffff021916908373ffffffffffffffffffffffffffffffffffffffff16021790555050505b565b60045481565b600360009054906101000a900473ffffffffffffffffffffffffffffffffffffffff1673ffffffffffffffffffffffffffffffffffffffff1663a9059cbb826000546040518363ffffffff167c0100000000000000000000000000000000000000000000000000000000028152600401808373ffffffffffffffffffffffffffffffffffffffff1673ffffffffffffffffffffffffffffffffffffffff16815260200182815260200192505050602060405180830381600087803b15801561058e57600080fd5b505af11580156105a2573d6000803e3d6000fd5b505050506040513d60208110156105b857600080fd5b810190808051906020019092919050505050600360009054906101000a900473ffffffffffffffffffffffffffffffffffffffff1673ffffffffffffffffffffffffffffffffffffffff1663a9059cbb600260009054906101000a900473ffffffffffffffffffffffffffffffffffffffff166001546040518363ffffffff167c0100000000000000000000000000000000000000000000000000000000028152600401808373ffffffffffffffffffffffffffffffffffffffff1673ffffffffffffffffffffffffffffffffffffffff16815260200182815260200192505050602060405180830381600087803b1580156106b357600080fd5b505af11580156106c7573d6000803e3d6000fd5b505050506040513d60208110156106dd57600080fd5b8101908080519060200190929190505050505056fea165627a7a72305820f61f8b36c8c2a4d5936744d63e17f23879a726de941b71d56bdfc02cdd63a1d60029",
  "source": "pragma solidity 0.5.5;\n\ncontract IERC20 {\n    function transfer(address to, uint256 value) public returns (bool) {}\n}\n\ncontract NoTx {\n\n  // initialize\n  uint256 public REWARD_PER_WIN = 125000000;\n  uint256 public CREATOR_REWARD = 1250000;\n  address public CREATOR_ADDRESS = 0x1CB3f4482C1f89c5c9457fA2eB634885462E4372;\n  address public GTT_ADDRESS;\n\n  // game state params\n  uint256 public lastPayout;\n  address public currWinner;\n\n  mapping (uint256 => bool) public didBlockHaveTx;  // blockNumber, didBlockHaveTx\n\n  constructor() public {\n    currWinner = address(this);\n  }\n\n  // can only be called once\n  function setTokenAddress(address _gttAddress) public {\n    if (GTT_ADDRESS == address(0)) {\n      GTT_ADDRESS = _gttAddress;\n    }\n  }\n\n  function play() public {\n    uint256 currentBlock = block.number;\n    uint256 lastBlock = currentBlock - 1;\n\n    // pay out last winner\n    if (!didBlockHaveTx[lastBlock]) {\n      payOut(currWinner);\n\n      lastPayout = currentBlock;\n    }\n\n    // do nothing if a block has already been transacted in\n    if (didBlockHaveTx[currentBlock]) {\n      return;\n    } else {\n      didBlockHaveTx[currentBlock] = true;\n      currWinner = msg.sender;\n    }\n  }\n\n  function payOut(address winner) internal {\n    IERC20(GTT_ADDRESS).transfer(winner, REWARD_PER_WIN);\n    IERC20(GTT_ADDRESS).transfer(CREATOR_ADDRESS, CREATOR_REWARD);\n  }\n}",
  "sourcePath": "/Users/sh/Dev/other/gtg/gtg-web/contracts/NoTx.sol",
  "compiler": {
    "name": "solc",
    "version": "0.5.5+commit.47a71e8f.Emscripten.clang"
  },
  "schemaVersion": "3.0.2",
  "updatedAt": "2019-03-07T17:01:51.654Z",
  "devdoc": {
    "methods": {}
  },
  "userdoc": {
    "methods": {}
  }
}